:020000040800F2
:10000000504D00202D02000835020008370200087C
:10001000390200083B0200083D0200080000000011
:10002000000000000000000000000000890100083E
:100030004102000800000000CD0100085928000816
:10004000470200084702000847020008470200086C
:10005000470200084702000847020008470200085C
:10006000470200084702000847020008DD030008B5
:10007000FD0300081D0400083D0400085D0400089D
:100080007D0400089D04000847020008470200089C
:10009000470200084702000847020008470200081C
:1000A000470200084702000847020008470200080C
:1000B00047020008470200084702000847020008FC
:1000C00047020008470200084702000847020008EC
:1000D00047020008591C0008991C00084702000844
:1000E00047020008470200084702000800F002F833
:1000F00000F03AF80AA090E8000C82448344AAF188
:100100000107DA4501D100F02FF8AFF2090EBAE885
:100110000F0013F0010F18BFFB1A43F0010318473B
:100120000C3500002C350000103A24BF78C878C187
:10013000FAD8520724BF30C830C144BF04680C60ED
:10014000704700000023002400250026103A28BF35
:1001500078C1FBD8520728BF30C148BF0B60704739
:100160001FB51FBD10B510BD00F083F81146FFF795
:10017000F7FF02F019F800F0A1F803B4FFF7F2FF5F
:1001800003BC00F0A9F80000204B19680868B0E82B
:10019000F00F80F30988BFF36F8F4FF0000080F3FA
:1001A00011884EF00D0E70470000000006480068F0
:1001B000006880F3088862B661B6BFF34F8FBFF363
:1001C0006F8F00DF00BF00BF08ED00E0EFF3098094
:1001D000BFF36F8F0D4B1A6820E9F00F106008B560
:1001E0004FF0BF0080F3118802F0ECFA4FF00000EE
:1001F00080F31188BDE8084019680868B0E8F00F7E
:1002000080F30988BFF36F8F704700BF4C00002058
:10021000EFF311804FF0BF0181F31188704780F335
:1002200011887047EFF30580704700000948804748
:1002300009480047FEE7FEE7FEE7FEE7FEE7FEE7C8
:10024000FEE7FEE7FEE7FEE704480549054A064BE0
:1002500070470000DD1B0008ED000008504700203B
:10026000504D0020504900205049002070477047F1
:100270007047754600F02CF8AE46050069465346B7
:1002800020F00700854618B020B5FFF7DDFFBDE878
:1002900020404FF000064FF000074FF000084FF0ED
:1002A000000B21F00701AC46ACE8C009ACE8C0097E
:1002B000ACE8C009ACE8C0098D46704710B50446EB
:1002C000AFF300802046BDE81040FFF756BF0000A6
:1002D00000487047F046002001491820ABBEFEE7F9
:1002E00026000200704710B501F078FC4FF4614021
:1002F00001F00EFE4FF4614001F0EEFC00F004FE50
:1003000001F070FE43F6982002F0B2F910BD000033
:100310001FB50446FFF7E7FF00200123CDE90030B9
:100320000290034680220AA103900D4802F0A4FA2D
:1003300000200090019002900346802209A10390C2
:100340000B4802F099FA002002F0BCF91FBD000032
:1003500044796E616D6978656C5F53657400000067
:100360001507000846756E6374696F6E0000000023
:10037000FD08000810B504460448007A401C0349F3
:100380000872002002F09EF910BD000098000020C5
:100390001CB504464FF47A700D4903460A46CDE970
:1003A000001001460A4801F07FF94FF42F726421D2
:1003B0001F2001F0AFFB40F6B83002F059F90548B4
:1003C000C07A401C0349C872002002F07BF91CBDB2
:1003D0000000B442980000207047000010B50548A6
:1003E000006800F00F04034844602046FFF7F4FF64
:1003F00010BD0000000002407047000010B5054825
:100400000068C0F303142001024948602046FFF74A
:10041000F3FF10BD000002407047000010B5054812
:100420000068C0F303242002024948602046FFF719
:10043000F3FF10BD000002407047000010B50548F2
:100440000068C0F303342003024948602046FFF7E8
:10045000F3FF10BD000002407047000010B50548D2
:100460000068C0F303442004024948602046FFF7B7
:10047000F3FF10BD000002407047000010B50548B2
:100480000068C0F303542005024948602046FFF786
:10049000F3FF10BD000002407047000010B5054892
:1004A0000068C0F303642006024948602046FFF755
:1004B000F3FF10BD000002402DE9F0438FB0064667
:1004C000884617461D4600248DF82460B8F1090FB0
:1004D0007DD2DFE808F0FD673D058FC7E9FDD80054
:1004E00003208DF825007D4810F817202046611C58
:1004F000CCB20DF127010A5400222046611CCCB277
:100500000DF127010A54754800EB47004078012897
:1005100006D12046611CCCB20DF127010D540CE030
:100520002046611CCCB20DF127010D542A0A204649
:10053000611CCCB20DF127010A548DF82640DDE98B
:100540000D01CDE9000109A80FC801F013FAC1E0BF
:1005500002208DF82500614810F817202046611C04
:10056000CCB20DF127010A5400222046611CCCB206
:100570000DF127010A542046611CCCB20DF1270170
:100580000D542046611CCCB20DF127010A548DF8A0
:100590002640DDE90D01CDE9000109A80FC801F0F1
:1005A000E9F997E04FF000098DF80C6001208DF813
:1005B0000D0000208DF80E00DDE90701CDE90001F6
:1005C00003A80FC801F0D6F900BF022000E07FE0C9
:1005D00000F0A6FEB0F10009F7D099F80000B04293
:1005E000F3D199F8030018B100200FB0BDE8F083F3
:1005F0000120FAE704208DF82500384810F817206C
:100600002046611CCCB20DF127010A54002220467D
:10061000611CCCB20DF127010A54304800EB4700B1
:100620004078012806D12046611CCCB20DF127018B
:100630000D540CE02046611CCCB20DF127010D5485
:100640002A0A2046611CCCB20DF127010A548DF80C
:100650002640DDE90D01CDE9000109A80FC801F030
:1006600089F937E08DF8246005208DF825000020F9
:100670008DF82600DDE90D01CDE9000109A80FC8BC
:1006800001F078F926E08DF8246008208DF8250027
:1006900000208DF82600DDE90D01CDE9000109A853
:1006A0000FC801F067F915E08DF8246006208DF879
:1006B000250002208DF8270001208DF82600DDE9B5
:1006C0000D01CDE9000109A80FC801F053F901E0BF
:1006D00001208AE700BF012087E70000EE33000811
:1006E00070B5002401E0681C85B2032000F018FEFC
:1006F000041E05D02078FA2802D1A078012801D064
:10070000C82DF0DBC82D01DAE07870BD4FF0FF3066
:10071000FBE7000008B5BAE05D48007811286FD209
:10072000DFE800F009121B232B32383E484E545CA0
:1007300083666F777B005749887C00F0F1FD0446A3
:100740000CB15548046071E0524948785349097822
:1007500000F0C2FC5249088068E04E490B784878A6
:1007600002220321FFF7A8FE60E04A4948780023EF
:100770001A460621FFF7A0FE58E0464B1A89D98891
:10078000587801F0C7F951E0424A117C507801F0E5
:10079000B7F94BE03F4AD17B507801F0C7F945E00B
:1007A00040490A783B4948783F4B3C49097800F07A
:1007B000CFFC3BE0374A517C507801F0C1F935E07D
:1007C00034494878002101F0BBF92FE031494B7BD7
:1007D000487807220321FFF76FFE27E02D4948786C
:1007E00000231A460121FFF767FE2D4908801DE00E
:1007F0002849CB88487813220421FFF75DFE15E0D5
:1008000013E02449487800231A460521FFF754FED7
:100810000CE0684600F0E4FA00BF1E498B7C487883
:1008200004220321FFF748FE00E000BF00BF642060
:10083000174908704FF4FA7001F01AFF0020009079
:1008400021E01A499DF8002031F8120002F070FCF6
:1008500082464FF08B4102F055FB814602F0B8FA18
:1008600007464FF06632124B02F0B4F9054602F02B
:100870007FF910499DF8002041F822009DF8000002
:10088000401CC0B200909DF800000328D9DB43E76C
:1008900001000020000100200400002008000020CA
:1008A000100000200A000020AC00002014000020EE
:1008B00066660A40C00000201CB504464FF42F7243
:1008C00000211F2001F026F94FF47A7001F0D0FECC
:1008D0004FF42F70002103460A46CDE9001001466F
:1008E000002000F0E1FE04488079401C0249887134
:1008F000002001F0E7FE1CBD9800002086B023E137
:1009000092480078142871DA914890490978405C3F
:1009100001286BD18D4800780C2868D2DFE800F000
:10092000B806162636465668788898A80020884962
:10093000487005AA0223CDE90120009303900346E5
:10094000802284A1854801F097FFA2E00020804921
:10095000887005AA0223CDE9012000930390034685
:1009600080227FA1824801F087FF92E00020784931
:10097000C87005AA0223CDE9012000930390034625
:1009800080227CA17F4801F077FF82E0002070493F
:10099000087105AA0223CDE90120009303900346C4
:1009A000802279A17B4801F067FF72E0002068494E
:1009B000487105AA0223CDE9012000930390034664
:1009C000802275A1774801F057FF62E0002060495E
:1009D000887105AA0223CDE9012000930390034604
:1009E000802271A1734801F047FF52E05DE04FE0C3
:1009F00000205749C87105AA0223CDE901200093C0
:100A00000390034680226CA16F4801F035FF40E05F
:100A100000204F49087205AA0223CDE90120009366
:100A200003900346802269A16B4801F025FF30E066
:100A300000204749487205AA0223CDE9012000930E
:100A400003900346802265A1684801F015FF20E06D
:100A500000203F49887205AA0223CDE901200093B6
:100A600003900346802262A1664801F005FF10E072
:100A700000203749C87205AA0223CDE9012000935E
:100A800003900346802260A1634801F0F5FE00E078
:100A900000BF00BF2D48007818B12C4800785F498E
:100AA000087000202949087013E028480078FF28C2
:100AB0000FD1274859490978405C50B9059801F091
:100AC00001FE01202249554A1278885404201F490A
:100AD00008704FF4C87001F0CBFDFFF701FE04462B
:100AE000601C88B30A282AD2DFE800F00529090D26
:100AF0001115191D212500201449087023E0052037
:100B0000124908701FE00120104908701BE0062000
:100B10000E49087017E004200C49087013E0092002
:100B20000A4908700FE00A20084908700BE00B2002
:100B30000649087007E002200449087003E000201D
:100B40000249087000BF00BFDAE600000000002084
:100B5000980000204772616243757000410D0008E3
:100B600053696E676C655F46696E67657200000069
:100B7000551B000854687265655F46696E6765724B
:100B8000000000003D1C000872657365745F6861B9
:100B90006E640000650E00086F70656E5F68616EC0
:100BA00064000000E10D00084661737452657365CE
:100BB00074000000B9080008566572746963616CBE
:100BC0005F486F6C6400000001200008436C616D99
:100BD000705F4361726400007503000853746F6EA8
:100BE000655F47657374757265000000A11B00089E
:100BF00053636973736F72735F476573747572655E
:100C000000000000B5180008436C6F74685F47650A
:100C100073747572650000009103000812000020D3
:100C20002DE9F04102460025002600200023002483
:100C3000002791F803C00CF00F0591F803C00CF0E9
:100C4000100CBCF1000F03D091F802C04CEA05056E
:100C500091F800C0BCF1000F31D0146800202BE0E7
:100C60004FF0010C0CFA00F3B1F800C00CEA0306D7
:100C70009E4220D183004FF00F0C0CFA03F7BC43C7
:100C800005FA03FC4CEA040491F803C0BCF1280FF8
:100C900006D14FF0010C0CFA00FCC2F814C00AE0B7
:100CA00091F803C0BCF1480F05D14FF0010C0CFACC
:100CB00000FCC2F810C0401C0828D1D31460B1F861
:100CC00000C0BCF1FF0F34DD546800202EE000F1BD
:100CD000080C4FF0010808FA0CF3B1F800C00CEA58
:100CE00003069E4221D183004FF00F0C0CFA03F74C
:100CF000BC4305FA03FC4CEA040491F803C0BCF1C0
:100D0000280F05D100F1080C08FA0CF8C2F814807D
:100D100091F803C0BCF1480F07D100F1080C4FF067
:100D2000010808FA0CF8C2F81080401C0828CED33D
:100D30005460BDE8F0814161704701617047000077
:100D40001CB504464FF4C8701F4903460A46CDE956
:100D5000001001461C4800F0A7FC4FF47A6001F037
:100D600087FC4FF42F7200211F2000F0D3FE40F6C5
:100D7000B83001F07DFC4FF49670144903460A46E2
:100D8000CDE900100146114800F08EFC40F6B83065
:100D900001F06EFC64200E4909680346CDE900109D
:100DA0000C48642102680C48006800F07DFC40F6A5
:100DB000B83001F05DFC09484078401C0749487094
:100DC000002001F07FFC1CBD0000B442000048423E
:100DD0002C00002028000020240000209800002083
:100DE0001CB50446C8201C4903460A46CDE900103C
:100DF0000146194800F058FC42F2107001F038FC2E
:100E00004FF42F7264211F2000F084FE4FF4FA602B
:100E100001F02EFC4FF42F7200211F2000F07AFE0B
:100E20004FF4FA6001F024FCC8200C4903460A463E
:100E3000CDE900100146094800F036FC40F6B83014
:100E400001F016FC06484079401C05494871002015
:100E500001F038FC1CBD0000000070420000A04200
:100E6000980000201CB504464FF4FA70234903464D
:100E70000A46CDE900100146204800F015FC40F676
:100E8000B83001F0F5FB4FF42F72C8211F2000F09D
:100E900041FE40F6B83001F0EBFB4FF42F72002119
:100EA0001F2000F037FE40F6B83001F0E1FB4FF4B0
:100EB000FA70134903460A46CDE90010014610486E
:100EC00000F0F2FB40F6B83001F0D2FB4FF4FA70BC
:100ED000002103460A46CDE900100146002000F03B
:100EE000E3FB40F6B83001F0C3FB06480079401C34
:100EF00004490871002001F0E5FB1CBD00007042B0
:100F00000000C8429800002008B50121082000F028
:100F100069F84FF4E070ADF8000010208DF8030080
:100F200003208DF8020069460448FFF779FE4FF46C
:100F3000E0710248FFF7FFFE08BD0000000C014011
:100F400070B5002100230F22C47804B3154C246827
:100F500004F4E064C4F5E064210AC1F10403CA406A
:100F6000447804FA03F184781440214309010E4CBB
:100F70000678A155047804F01F050124AC400578DB
:100F80006D11AD0005F1E025C5F8004109E00478D8
:100F900004F01F050124AC40044D0678761145F895
:100FA000264070BD0CED00E000E400E080E100E0D0
:100FB00002490143024A1160704700000000FA052F
:100FC0000CED00E029B1064AD2690243044BDA6114
:100FD00004E0034AD2698243014BDA6170470000A2
:100FE0000010024029B1064A92690243044B9A61FB
:100FF00004E0034A92698243014B9A617047000002
:101000000010024030B500210022002400232D4DA5
:101010006D6805F00C0121B1042905D0082923D100
:1010200005E0294D056022E0274D05601FE0254DB4
:101030006D6805F47012234D6D6805F48034022547
:1010400005EB92421CB9214D554305600BE01D4D47
:101050006D6805F400351DB11C4D5543056002E077
:10106000194D5543056002E0174D056000BF00BFF4
:10107000144D6D6805F0F0010909154D6B5C0568AC
:10108000DD4045600F4D6D6805F4E061090A104DC3
:101090006B5C4568DD4085600A4D6D6805F4605104
:1010A000C90A0B4D6B5C4568DD40C560054D6D6838
:1010B00005F44041890B074D6B5CC568B5FBF3F542
:1010C000056130BD0010024000127A0000093D00A9
:1010D00084000020940000202DE9F04180460C4659
:1010E00000251A4800EB440043782246022140467E
:1010F000FFF7E2F901E0781C87B2022000F010F956
:10110000051E0AD02878404507D1A878001F0F494E
:1011100001EB44014978884203D041F658308742B8
:10112000E9DB41F6583087420CD0084800EB440018
:101130004078012801D1EE7804E0E978287901EBC4
:10114000002086B23046BDE8F0810000EE33000892
:101150002DE9F05F80460F4691469A46002500260D
:10116000AB46002408E03819234901EB40004078E1
:101170003044C6B2601CC4B24C45F4DB33463A4638
:1011800002214046FFF798F903E00BF101001FFA36
:1011900080FB022000F0C4F8051E02D028784045EC
:1011A00003D041F658308345EFDB002628784045D0
:1011B0001FD1F5B100241AE038190F4901EB4000A6
:1011C0004078012807D13046711CCEB2E91C085C7A
:1011D0002AF8140009E0E81C825D711C405C02EBF7
:1011E00000202AF81400B01CC6B2601CC4B24C45E2
:1011F000E2DBBDE8F09F0000EE330008002113E0C1
:1012000045480278801C805CFF2800D112E04248EB
:101210000078401CC0B2404A1070642290FBF2F388
:1012200002FB13003C4A10703B4800783A4A52785F
:101230009042E5D100BF384840786430364A127891
:10124000801A642290FBF2F302FB1300052861DD93
:1012500031480078401C90FBF2F302FB13022E4849
:10126000801C805CFF2849D12B480078801C6422B8
:1012700090FBF2F302FB13022748801C805CFA28E3
:101280003CD125480078801C642290FBF2F302FBDD
:1012900013022148801C805C204A10701E48007890
:1012A000C01C642290FBF2F302FB13021A48801C5C
:1012B000805C1A4A9070002110E017480078001DE9
:1012C0000844642290FBF2F302FB13021248801CD4
:1012D000825C1248C01C4254481CC1B20F4880783E
:1012E0008842EADC0C480078801D642290FBF2F30F
:1012F00002FB1300084A107008487047064800783F
:10130000401C642290FBF2F302FB1300024A1070AF
:101310000020F2E70020F0E7140100201002002076
:1013200010B50446012C04D0022C05D0032C09D1A1
:1013300005E000F00BF810BD00F0CCF8FBE7FFF77C
:101340005DFFF8E700F002F8F5E7000010B50021B6
:1013500013E05E480278801C805CFF2800D112E018
:101360005A480078401CC0B2584A1070642290FB62
:10137000F2F302FB1300554A107054480078534AA8
:1013800052789042E5D100BF5048407864304F4ACF
:101390001278801A642290FBF2F302FB13000528F6
:1013A0007EDD4A480078401C90FBF2F302FB1302FA
:1013B0004648801C805CFF287AD1444840786430DD
:1013C000424A1278801A642290FBF2F302FB130067
:1013D000C01E3E4A1278D21C642392FBF3F403FB36
:1013E00014233A4A921CD25C90425FDB3748007863
:1013F000801C642290FBF2F302FB13023348801C32
:10140000805C334A107031480078C01C642290FB25
:10141000F2F302FB13022D48801C805C2C4A907072
:101420002A480078001D642290FBF2F302FB1302AD
:101430002648801C805C264A5070002110E023481A
:101440000078401D0844642290FBF2F302FB130273
:101450001E48801C825C1E48C01C4254481CC1B2FD
:101460001B488078801E8842E9DC18480078184ABA
:1014700092781044C01C642290FBF2F302FB13022A
:101480001248801C805C124AD0751048007892780F
:101490001044001D642290FBF2F302FB130001E0F4
:1014A00012E005E0094A1070094810BD0020FCE771
:1014B00006480078401C642290FBF2F302FB130004
:1014C000024A10700020F0E70020EEE7140100202F
:1014D000E001002030B5002113E071480278801C43
:1014E000805CFF2800D112E06D480078401CC0B23B
:1014F0006B4A1070642290FBF2F302FB1300684AFF
:10150000107067480078664A52789042E5D100BF73
:10151000634840786430624A1278801A642290FBF3
:10152000F2F302FB13000A2874DD5D480078401CCA
:1015300090FBF2F302FB13025948801C805CFF28E9
:1015400069D157480078801C642290FBF2F302FBBB
:1015500013025348801C805CFD28F1D1504840782C
:1015600064304F4A1278801A642290FBF2F302FB37
:101570001300401F4A4A1278521D642392FBF3F471
:1015800003FB1423464A921CD35C921E1278921DD0
:10159000642492FBF4F504FB1524414A921C125D6D
:1015A00003EB022290426BDB3D480078001D642271
:1015B00090FBF2F302FB13023948801C805C394A2D
:1015C000107037480078401D642290FBF2F302FB54
:1015D00013023348801C825C801E0078801D6423C7
:1015E00090FBF3F403FB14032D48801CC05C02EB5A
:1015F00000202C4A90702A4800780830642290FB22
:10160000F2F302FB13022648801C805C254A5070CE
:10161000002112E042E035E021480078093008441A
:10162000642290FBF2F302FB13021D48801C825CD3
:101630001C48C01C4254481CC1B21A488078001F84
:101640008842E9DC16480078164A92781044401D1A
:10165000642290FBF2F302FB13021148801C805CB1
:10166000104AD0750E48007892781044C01D64224C
:1016700090FBF2F302FB1300094A1070094830BDD9
:101680000020FCE706480078401C642290FBF2F33F
:1016900002FB1300024A10700020F0E70020EEE782
:1016A0007A010020F80100202DE9FF4F89B088461B
:1016B00092469946DDF85CB000240021099801F0BB
:1016C000E3FC10D07749099801F046FD7649009077
:1016D00001F018FC7549019001F0A6FB029001F0A1
:1016E00007FD85B200E07B257B2D01DA7B2504E038
:1016F000B5F5806F01DB40F2FF350021504601F067
:10170000C3FC10D06749504601F026FD66490090A1
:1017100001F0F8FB6549019001F086FB029001F0B1
:10172000E7FC86B200E07B267B2E01DA7B2604E014
:10173000B6F5806F01DB40F2FF360021169801F00C
:10174000A3FC10D05A49169801F006FD56490090A6
:1017500001F0D8FB5649019001F0CAFD029001F05A
:10176000C7FC87B201E040F2523740F25230874264
:1017700000DD0746FE208DF80C0083208DF80D005B
:101780001E222046611CCCB20DF10F010A5400222A
:101790002046611CCCB20DF10F010A5404222046F0
:1017A000611CCCB20DF10F010A5400222046611CCD
:1017B000CCB20DF10F010A541E222046611CCCB29E
:1017C0000DF10F010A542046611CCCB20DF10F013E
:1017D0000D542A0A2046611CCCB20DF10F010A54A7
:1017E0002046611CCCB20DF10F0101F800804FEAD8
:1017F00018222046611CCCB20DF10F010A542022A0
:101800002046611CCCB20DF10F010A542046611C28
:10181000CCB20DF10F010E54320A2046611CCCB23D
:101820000DF10F010A542046611CCCB20DF10F01DD
:1018300001F800904FEA19222046611CCCB20DF14C
:101840000F010A5421222046611CCCB20DF10F0178
:101850000A542046611CCCB20DF10F010F543A0A14
:101860002046611CCCB20DF10F010A542046611CC8
:10187000CCB20DF10F0101F800B04FEA1B22204657
:10188000611CCCB20DF10F010A548DF80E40DDE958
:101890000701CDE9000103A80FC800F06BF80DB0F7
:1018A000BDE8F08F000061440000C8420000F6422D
:1018B000008054441CB504464FF47A700D49034629
:1018C0000A46CDE9001001460B48FFF7EDFE4FF444
:1018D0002F7264211F2000F01DF940F6B83000F08F
:1018E000C7FE0648807A401C04498872002000F038
:1018F000E9FE1CBD0000B4420000A040980000209A
:101900002DE9F04104460D460026002717480088BF
:1019100020F004001549088089141548FFF70DFAD6
:10192000402112480C3800F04BFA10E014F8017B0B
:1019300039460E480C3800F0E6FA00BF40210B484B
:101940000C3800F03DFA0028F8D0701C86B2AE4288
:10195000ECDB4FF480510648FFF7EDF903480088AF
:1019600040F0040001490880BDE8F0810C380140D6
:10197000000801400FB430B589B000240025FF20D5
:101980008DF800008DF80100FD208DF80200002088
:101990008DF803009DF830008DF804009DF83200AA
:1019A000C01CC0B28DF805009DF83200C01C000AB2
:1019B0008DF806009DF831008DF8070008E00DF164
:1019C0003300015D04F108000DF80010601C84B2C2
:1019D0009DF83200A042F2DC9DF8320000F10802CE
:1019E0006946002000F090FD0546E9B29DF83200FE
:1019F00008300DF80010290A9DF8320009300DF862
:101A000000109DF8320000F10A016846FFF778FFE8
:101A100009B030BC5DF814FB10B500F001F810BD42
:101A20000CB50020019000903348006840F48030ED
:101A30003149086000BF3048006800F40030009071
:101A40000198401C0190009818B90198B0F5A06F5A
:101A5000F1D12948006800F4003010B10120009055
:101A600001E0002000900098012843D1234800683D
:101A700040F01000214908600846006820F003008B
:101A800008600846006840F0020008601A48406894
:101A9000194948600846406848600846406840F474
:101AA000806048600846406820F47C104860084622
:101AB000406840F4E81048600846006840F08070D4
:101AC000086000BF0C48006800F000700028F9D0E2
:101AD0000948406820F0030007494860084640680C
:101AE00040F00200486000BF0348406800F00C006E
:101AF0000828F9D10CBD000000100240002002406F
:101B000070B505460C462346032211462846FEF7CB
:101B1000D3FC70BDF8B506460C4615462346022296
:101B200013213046009500F0B7FAF8BD70B50546B0
:101B30000C4623460C2203212846FEF7BDFC70BD4F
:101B400070B505460C4623460F2203212846FEF7B2
:101B5000B3FC70BD1CB504464FF42F7200211F204A
:101B6000FFF7D8FF4FF47A7000F082FD4FF42F702A
:101B700000214FF46173084ACDE9001001460020AE
:101B8000FFF792FD05488078401C044988700020CA
:101B900000F098FD1CBD00000000C8429800002025
:101BA0001CB504464FF4C8700A4903460A46CDE9FD
:101BB000001001460748FFF777FD40F6B83000F007
:101BC00057FD0548407A401C03494872002000F048
:101BD00079FD1CBD0000A0409800002010B51348FE
:101BE000006840F00100114908600846406810494B
:101BF00008400E494860084600680E4908400B49F5
:101C000008600846006820F48020086008464068A4
:101C100020F4FE0048604FF41F008860FFF7FCFED0
:101C20004FF000600449086010BD00000010024041
:101C30000000FFF8FFFFF6FE08ED00E010B50446D7
:101C40000448C078401C0349C870002000F03AFDE9
:101C500010BD00009800002010B520210C4800F0B5
:101C6000AFF8A0B10A4800F049F9C1B2094842787A
:101C7000801C8154801E4078401CC0B205494870C9
:101C8000642190FBF1F201FB12000249487010BD83
:101C9000003801407A01002010B520210C4800F0E6
:101CA0008FF8A0B10A4800F029F9C1B2094842787A
:101CB000801C8154801E4078401CC0B20549487089
:101CC000642190FBF1F201FB12000249487010BD43
:101CD000004400401401002010B586B004460121E4
:101CE0000520FFF77FF901214804FFF76BF9102069
:101CF000ADF814008DF8170003208DF8160005A923
:101D00002748FEF78DFF10212548FFF714F808201B
:101D1000ADF8140004208DF8170003208DF816008C
:101D200005A91F48FEF77CFF0420ADF81400182019
:101D30008DF8170003208DF8160005A91848FEF746
:101D40006FFF4FF44070FFF733F926208DF8000045
:101D500000208DF801008DF8020001208DF80300AD
:101D60006846FFF7EDF801940020ADF80800ADF8E3
:101D70000A00ADF80C00ADF810000C20ADF80E0014
:101D800001A9084800F04EF8012240F2255105480B
:101D900000F023F80121034800F006F806B010BD5A
:101DA000000801400044004021B1828942F4005201
:101DB000828104E082894DF6FF731A408281704768
:101DC00002460020B1F5007F00D100BF13880B4010
:101DD0000BB1012000E000207047F0B5034600245D
:101DE00000260025002040F66A17B94200D100BF46
:101DF0001846C1F3421401F01F06012707FA06F541
:101E0000012C01D10C3004E0022C01D1103000E093
:101E100014301AB107682F43076002E00768AF4328
:101E20000760F0BD2DE9F04786B005460E46002458
:101E3000A24600BFA1460027B08900B100BF2F46CF
:101E40002C8A4CF6FF700440F08804432C82AC8945
:101E50004EF6F3100440B088318908437189084375
:101E60000443AC81AC8A4FF6FF400440B089044380
:101E7000AC8201A8FFF7C6F81F48874202D1DDF8FF
:101E800010A001E0DDF80CA0A88900F4004040B1EA
:101E90000AEBCA0000EB0A1031684900B0FBF1F808
:101EA00007E00AEBCA0000EB0A1031688900B0FBBA
:101EB000F1F86420B8FBF0F004012009642101FB73
:101EC0001089A88900F4004040B1322000EBC9001D
:101ED000B0FBF1F000F00700044308E0322000EB13
:101EE00009106421B0FBF1F000F00F0004432C81D5
:101EF00006B0BDE8F0870000003801400146888840
:101F0000C0F308007047C1F30802828070470000E8
:101F100010B586B00446012144F20400FFF762F8D0
:101F20004FF48050ADF8140010208DF817000320F6
:101F30008DF8160005A92948FEF772FE4FF480516E
:101F40002648FEF7F8FE4FF48060ADF814004820F4
:101F50008DF8170003208DF8160005A91F48FEF71D
:101F60005FFE4FF40070ADF8140018208DF81700D4
:101F700003208DF8160005A91848FEF751FE4FF40E
:101F80004070FFF715F825208DF8000000208DF82F
:101F900001008DF8020001208DF803006846FEF76D
:101FA000CFFF01940020ADF80800ADF80A00ADF8AD
:101FB0000C00ADF810000C20ADF80E0001A9084887
:101FC000FFF730FF012240F225510548FFF705FFDA
:101FD00001210348FFF7E8FE06B010BD00080140EC
:101FE00000380140002000BF04E00121034A1154E1
:101FF000411CC8B21428F8DB70470000980000208C
:102000001CB504464FF448701E4903461E4ACDE9EC
:10201000001001461046FFF747FB41F2883000F000
:1020200027FB4FF4487240F207311F20FFF772FD83
:1020300041F2883000F01CFB4FF44870134903460E
:102040000A46CDE9001001461048FFF72DFB41F28A
:10205000883000F00DFB32200D4903460A46CDE9D9
:10206000001001460A48FFF71FFB41F2883000F0DC
:10207000FFFA0848C079401C0649C871002000F0EA
:1020800021FB1CBD0080544400C07F440000FA4383
:1020900000009643980000200FB42DE9F0478AB065
:1020A00005460F460024A046A1460026A24615A8D4
:1020B00003908DF8105003208DF81100394810F866
:1020C00017202146641C0DF11300425400222146C2
:1020D000641C425400BF2CE007EB0800314901EBBF
:1020E0004000407801280BD1039810F8041BCAB2B5
:1020F00003902046611CCCB20DF113010A5414E088
:10210000039830F8041B1FFA81F903902046611CE4
:10211000CCB20DF1130101F800904FEA19222046CC
:10212000611CCCB20DF113010A5408F1010000F05A
:10213000FF0814988045CFDB002003908DF81240F3
:10214000DDE90801CDE9000104A80FC8FFF712FC82
:102150001F2D21D106B30EE0701C86B244F61F601D
:10216000864208D1DDE90801CDE9000104A80FC8C5
:10217000FFF700FC00260220FFF7D2F8B0F1000ABA
:1021800006D09AF80000A84202D19AF8030018B1CC
:1021900044F620608642DFDB0AB0BDE8F0075DF858
:1021A00014FB0000EE3300081FB5002000900190E2
:1021B00002900346802205A10390074800F05CFBD3
:1021C00000F0D4FA002004B010BD00004253505F6C
:1021D000496E6974000000001103000810B5044640
:1021E0000E48006844600E480068844207D20B48DD
:1021F0000168091D0B48006800F0C0F90CE00748B1
:102200000168091D0848006800F0B8F9074800682F
:10221000844201D20548046010BD00004C0000203B
:102220006000002054000020500000207C000020AE
:102230002DE9F04106460F461FB9B00000F0F8F84E
:1022400000E03846054655B14C2000F0F1F8044650
:102250000CB1256304E0284600F0D6F900E0002424
:102260002046BDE8F081000070B523E000F0A2FA3E
:102270001348006808B9012000E00020054600F07E
:1022800009FCBDB900F0A0F90D48C068C468201D64
:1022900000F050F90B480068401E0A4908600A48DF
:1022A0000068401E0849086000F09EF9204600F0D2
:1022B0000DF800BF044800680028D7D170BD0000A9
:1022C000C84600205C0000205800002010B50446DD
:1022D000206B00F099F9204600F096F910BD00003F
:1022E0000A4A22F007000A4A10600022084B5A608E
:1022F00044F2F832074B5A6000221A60014644F259
:10230000F8324A601A460A60704700003002002026
:10231000300000203800002000BFFFF7A5FF034871
:1023200000680128F9D900F097F9F6E7284600205F
:102330002DE9F04704460F4616469946DDF8208001
:10234000002507E0795D04F134004155785D00B95E
:1023500002E06D1C102DF5D300BF00214320015574
:10236000052E00D30426E662201D00F004F904F1D6
:10237000180000F000F92461C6F10500A061646254
:102380000020606484F84800BDE8F08710B50024A0
:1023900007E004EB84010F4A02EB810000F0DEF855
:1023A000641C052CF5D30C4800F0D8F80B4800F05D
:1023B000D5F80B4800F0D2F80A4800F0CFF80A48E8
:1023C00000F0CCF80448094908600448084908604E
:1023D00010BD0000284600208C460020A0460020AA
:1023E000B4460020C8460020DC46002050000020F3
:1023F000540000200A490968096809B9012100E070
:10240000002121B14FF0FF31064A116006E0044976
:102410000968C968C868034A4168116070470000CC
:10242000500000207C000020FDF7F2FE00BFFEE718
:102430002DE9F04104464FF0000800F0BBF92648B2
:10244000006820B9FFF74CFF01202349086044B120
:10245000083404F0070020B104F00700C0F10800C0
:102460000444002C32D044F2F83084422ED21B4F68
:102470003846056801E02F462D686868A04202D200
:1024800028680028F7D1164885421FD0386800F127
:102490000808286838606868001B102810D92E19B1
:1024A0006868001B70606C6071680C4800E0006830
:1024B000026852688A42FAD302683260066000BF3E
:1024C000084968680968081A0649086000F0E2FAD5
:1024D0004046BDE8F08100004400002030000020AC
:1024E0003800002040000020001F4FF08073036080
:1024F000001F0160001F034B036014380260203886
:10250000704700002924000830B50B4600210BE07D
:102510005D5C85EA2025ECB2054D35F8145085EA5E
:102520000025A8B24D1CA9B29142F1DB30BD0000DC
:102530002C34000801460A69D1E901309860D1E9DC
:10254000010358605068884201D1886850600020BB
:1025500008611068401E10601068704700F10801A3
:1025600041604FF0FF31816000F10801C1600161FD
:1025700000210160704700210161704710B50246DB
:102580000B685C1C0CB9106907E002F1080000E060
:102590004068446824689C42FAD944684C604C689E
:1025A000A160886041600A611468641C146010BDF9
:1025B00042684A6093688B609368596091600861D3
:1025C00003685B1C0360704710B5FDF721FE0548EA
:1025D0000068401C03490860BFF34F8FBFF36F8F43
:1025E00010BD00004800002010B506480068401EDD
:1025F000044908600846006810B90020FDF70FFE86
:1026000010BD00004800002070B506463546B6B142
:10261000083D2C4600F0CEF86168094800E00068EB
:10262000026852688A42FAD302682260046005494F
:102630006068096808440349086000F02BFA70BD1F
:10264000300000204000002041F2BF204FF0E02188
:1026500048610720086170474FF0805003490860C7
:10266000BFF34F8FBFF36F8F7047000004ED00E0A2
:1026700070B504460026DCB100F09CF80E480068F6
:1026800005190E480068001DFFF754FF50B90B48AC
:10269000006890F82C10012088400949096881439E
:1026A000074801602846FFF799FD00F0F3F9064658
:1026B0000EB9FFF7D1FF70BD600000204C00002074
:1026C0006400002070B50546FFF77EFF15B920486D
:1026D000006800E028460446201DFFF72BFF78B96C
:1026E000E06A00EB80001B4951F8200040B994F8E3
:1026F0002C10012088401849096881431648016060
:10270000A06A18B104F11800FFF714FF211D134847
:10271000FFF74EFF12480068401C1149086011483D
:102720000068401C0F490860FFF75EFF0E48006814
:1027300060B107480068844202D1FFF78DFF05E0D1
:10274000FFF742FFFFF756FEFFF74EFF70BD000098
:102750004C0000202846002064000020C8460020CD
:102760005800002078000020680000201FB50020DD
:102770000090019002900346802209A103900A482C
:1027800000F07AF80446012C09D1FDF741FD012043
:102790000649086000200649086000F043F81FBDA4
:1027A00049444C450000000019230008680000203F
:1027B0006000002002480068401C01490860704722
:1027C000800000201248006818B1012011490860FB
:1027D0001DE000200F4908600F480068B0FA80F043
:1027E000C0F11F0101EB81020C4B03EB8200426838
:1027F0005268426000F108024368934202D1426885
:10280000526842604268D268054B1A6000BF704748
:102810008000002070000020640000202846002076
:102820004C00002010B50A48006840F47F000849B9
:1028300008600846006840F07F400860FFF704FF2A
:10284000002004490860FDF7B1FC002010BD000025
:1028500020ED00E04800002010B5FDF7D9FC00F0A5
:1028600089F818B14FF08050024908600020FDF748
:10287000D6FC10BD04ED00E02DE9FF4F81B080468D
:1028800015469946DDE90E7A28461099FFF7D0FCE7
:102890000446002C4FD0681E216B01EB800B2BF0FF
:1028A000070B00953A462046119B0299FFF740FD21
:1028B0004A4641465846FFF717FE2060BAF1000F1E
:1028C00001D0CAF80040FFF77FFE24480068401C92
:1028D000224908602248006840B92148046008463F
:1028E000006801280CD1FFF751FD09E01D48006880
:1028F00030B91B480068C06AB84201D81848046063
:1029000019480068401C1849086094F82C100120F0
:10291000884016490968084314490860E16A01EBD8
:102920008101134A02EB8100211DFFF741FE0126C0
:10293000FFF75AFE01E04FF0FF36012E09D109489A
:10294000006830B106480068C06AB84201D2FFF79B
:1029500083FE304605B0BDE8F08F00005C0000202B
:102960004C00002068000020780000206400002057
:10297000284600202DE9F04100273B480068002848
:1029800065D13A480068401C384908600846066826
:102990008EB93748D0F8008036480068344908605E
:1029A0003448C0F8008034480068401C3249086050
:1029B000FFF720FD00BF3148006886423BD300BFCF
:1029C0002B480068006808B9012000E0002020B111
:1029D0004FF0FF30294908602CE025480068C068A6
:1029E000C4686568AE4202D22448056022E0201D1A
:1029F000FFF7A0FDA06A18B104F11800FFF79AFDD7
:102A000094F82C10012088401D49096808431C498E
:102A10000860E16A01EB81011A4A02EB8100211D85
:102A2000FFF7C6FD1849E06A0968C96A8842C7D33A
:102A30000127C5E700BF14480068C06A00EB8000AA
:102A4000104951F82000012806D9012704E00F4859
:102A50000068401C0D4908600D48006800B101275E
:102A60003846BDE8F08100008000002060000020B2
:102A70005000002054000020740000207C00002042
:102A800064000020284600204C0000206C0000203C
:102A90007000002070B50025FFF796FD2C480068F7
:102AA000401E2B4908600846006800284BD1294881
:102AB0000068002847D024E02748C068C46804F1B3
:102AC0001800FFF737FD201DFFF734FD94F82C1098
:102AD0000120884021490968084320490860E16ACB
:102AE00001EB81011E4A02EB8100211DFFF760FD11
:102AF0001C49E06A0968C96A884202D301201A4960
:102B000008601548006808B9012000E0002000288E
:102B1000D2D01648006878B10AE0FFF72BFF10B159
:102B200001201149086011480068401E0F490860E3
:102B30000E4800680028F0D10B480068012802D137
:102B40000125FFF789FDFFF74FFD284670BD000006
:102B5000800000205C000020B446002064000020BB
:102B6000284600204C000020700000206C0000204F
:102B700021F00042A2F16052B2F5801F01F0004343
:102B800028BFD2F17F6C0BD95FEA001C43EAC20276
:102B900042EB507018BF704728BF20F0010070470B
:102BA000B2F5801FBCBF184670474FEA410C1CF5B8
:102BB000001F02D2084600F096BB70B500F0B4F8D2
:102BC00000000089FFF7F6BF4FF00040A0F580003D
:102BD00070470000DFF848C170B51CEA111E1EBF27
:102BE0001CEA13159EEA0C0F95EA0C0F00F06F809B
:102BF00081EA030423EA4C134EEAD47E21EA4C1105
:102C000041F4801143F48013AE44A1FB024CA0FBBD
:102C10000365AEF17F7E361955EB0C05A1FB034C25
:102C20004CF10003A0FB021C16EB0C06654153F1AE
:102C30000003094218BF46F0010613F4007F0BD1D0
:102C40004FEA03314FEA0530340341EA155140EAB7
:102C500016506FF003020AE04FEAC3214FEAC52085
:102C6000F40241EA555140EA56506FF0020202EB7D
:102C70002E4201EB025585EACE710AD05FEA440C80
:102C800018BF24F0004450F1000041F1000120EA97
:102C9000D47040F2FE7C624500D270BDA84214BFE1
:102CA0004FF080444FF04044002E08BF0024BEF196
:102CB000806FA8BFA1F1C041BDE8704080F2828062
:102CC0004FF0000001F1C04101F0004170479EEA61
:102CD0000C0F0CEA131518BF95EA0C0F06D04FF035
:102CE000000081EA030E0EF0004170BD00F01CF8F8
:102CF0008900013E00F007B800F009B84FEA430C24
:102D00005FEA5C5C08D081EA030100F05BB84FEA3F
:102D1000410C5FEA5C5CF6D14FF00000014970475E
:102D20000000FF070000F87F0EF1020E2EF0030EE8
:102D30005EF8046B364205D4012A43EB030515F512
:102D4000001F12D8012841EB010C1CF5001F0CD804
:102D50000ED14FEAD17C15F5001F0CEB4C0C0CF199
:102D6000020C08BF4CEBD37C04E04FF0080C01E0F0
:102D70004FEAD37C0CEB4C0526FA05F606F0070665
:102D8000B6F1040C06D20EEB860CBDE870404CF098
:102D9000010C6047DFE80CF0090B02024FF0004124
:102DA0004FF00000A1F5002170BD19461046012822
:102DB00051EB010418BFD4F5001484BF002001F0CA
:102DC000004170BD0808A0F500114FEA31017047BD
:102DD00043004FEAD30C4FEA3C0C43401FBF40076F
:102DE0000CF1605113F0FE4F70471CF0006F03D1DF
:102DF00000200CF0004170470CF0004343EA507093
:102E000010B540EACC0000F028FA00BF00000092A4
:102E10004FEA0001FFF7D6BF4FF000414FF000002E
:102E2000A1F500217047000090EA010F48BF81F032
:102E3000004100F16E82421A3CBF801A89184FEAA5
:102E4000D0524FF07F4C1CEA410FA2EBD15318BF78
:102E50009CEA026F00F03B804FF0004C4CEA0020EF
:102E60004CEA012121FA03FC10EB0C0C1ED202F1FA
:102E7000FF325FEA1C2040EBC25038BF70471CF0A5
:102E80007F0F4FEA400C18BFBCF17F4F38BF70472F
:102E9000C3F12003994008BF20F00100BCF17F4F2F
:102EA00038BF7047A0F1C04000F01DBA4FEA3C00A7
:102EB000000A40EBC25028BF1CF0FF0F4FEA400C45
:102EC000E6D018BFBCF17F4F38BF7047EAE79CEAF5
:102ED000026F05D010EA5C0F08BF00F00040704799
:102EE00010B500F0BAF900BF64FBBE3E401058BFF9
:102EF000C0F14040491058BFC1F140418142EFF359
:102F0000008070474FF47F0C1CEAD0121EBF1CEAF1
:102F1000D11392EA0C0F93EA0C0F00F0858090EA2F
:102F2000010F48BF42F4807240F4000C41F40000ED
:102F30002CF07F4120F07F4000B58142A2EB0302DC
:102F40000FF2081CACEB504EC0F100009EF800E000
:102F50004FEA4E0E00FB0EFC38BF49004FEA2C1C16
:102F600002F5FA020CFB0EF34FEACE1E4FEA112CCB
:102F70004FEAC1210EEB635E42EB22420EFB0CFCDA
:102F80004FEA1C5300FB03114FEA112C4FEA0131A9
:102F90000EFB0CFC4FEADC4C00FB0C11C14228BFBD
:102FA00009184CEB03335DF804EB10EB410143EBE4
:102FB000C250B2F57C0F38BF704729D512F0F00F20
:102FC0001CBF00F1C04000F00040704700818283C8
:102FD0008485868788898B8C8D8E8F919293959628
:102FE00097999A9C9D9FA0A2A3A5A7A8AAACAEB0B2
:102FF000B2B3B5B7B9BCBEC0C2C5C7C9CCCED1D4B7
:10300000D7D9DCDFE2E6E9ECF0F3F7FAFE000000E6
:103010004FEA400C0CF1807CBCF17E4F28BF70471A
:10302000B0F1C04000F05FB990EA010F0CEAD11393
:1030300048BF42F48072624538BF634507D213F43B
:103040007F0F16D080EA010000F00040704710B5F5
:1030500000F003F9097EFC3E00F005B880EA0100AB
:1030600000F00040704780EA010000F0004000F0EE
:103070003AB912F47F0F04BF0248704780EA01009A
:1030800000F031B90000C07F50EA010C00F113805C
:103090001CF5000F58BFBCF5000F01D488427047E3
:1030A00007D710F5000F58BF11F5000F15D488424F
:1030B0007047894270471CF5000F04D5BCF5000F1E
:1030C000F7D5814270474FF0807C1CEB400F38BF32
:1030D0001CEB410F01D28142704710B500F0BDF8E2
:1030E000922449004FF000504FF08051FFF7FEBE90
:1030F000C10DD1F19E0206DB4FEA002343F00043ED
:1031000023FA02F07047004207D54FEA4001B1F1BF
:10311000FE4F02D24FF00000704710B500F09DF84E
:1031200049922480002070476FEA20007047000019
:10313000B0FA80F310FA03F2C3F19D030AD0D90567
:1031400001EB1220530638BF704700F1010008BFA1
:1031500020F00100704700004FF47F0C1CEAD012F1
:103160001EBF1CEAD11392EA0C0F93EA0C0F00F079
:10317000478090EA010F48BF42F480724FF0004C44
:103180004CEA00204CEA012102EB0302A0FB0113F0
:10319000A2F50002002918BF43F001035B0028BF1D
:1031A0004FEA330342EB22425FEA132C4CEBC2504E
:1031B0002EBFBCEB436FB2F57C0F70474FEA036C38
:1031C000BCF1004F08BF20F00100B2F57C0F38BF02
:1031D00070470BD582F0FF0212F5803FC8BF7047E1
:1031E00000F1C040D8BF00F00040704700F5000C6F
:1031F0005FEA4C0C48BF7047B0F1C04000F073B8B4
:1032000090EA010F0CEAD11348BF42F48072624584
:1032100038BF634504D280EA010000F000407047E7
:1032200010B500F01AF800BF8900013E00F007B8A1
:1032300000F009B85FEA410C5FEA1C6C08D080EA34
:10324000010000F050B85FEA400C5FEA1C6CF6D158
:103250004FF00040A0F5800070470EF1020E2EF0F6
:10326000030E5EF8044B244204D44FEA4102B2F14B
:103270007F4F11D84FEA4003B3F17F4F0CD80ED1E6
:103280004FEAD07CB2F17F4F0CEB4C0C0CF1020CEE
:1032900008BF4CEBD17C04E04FF0080C01E04FEA92
:1032A000D17C0CEB4C0324FA03F404F00704B4F1D2
:1032B000040C06D20EEB840CBDE810404CF0010C5F
:1032C0006047DFE80CF0070802024FF00040A0F56D
:1032D000800010BD0846420018BFD2F1807288BF3E
:1032E00000F0004010BDFF2141EAD050C0057047FA
:1032F00080F0004090EA010F7FF59DAD81F0004124
:1033000000F007B890EA010F48BF81F000413FF597
:1033100092AD421A04D882F00042A0EB02001144A0
:103320004FEAD0524FF07F4C1CEA410FA2EBD15331
:1033300018BF9CEA026F4AD04FF0004C4CEA0020C4
:103340004CEA012121FA03FCB0EB0C0C0FD412F073
:10335000FE0F36D05FEA4C001DD5001240EBC25084
:1033600038BF70471CF03F0F18BF70470BE0A2F149
:1033700001025FEA1C2040EBC25038BF70471CF0CE
:103380007F0F18BF7047C3F12003994014BF401E40
:1033900020F00100704780084FEA122308BF7047F1
:1033A000B0FA80FCA2EB0C02CCF1280C60FA0CF015
:1033B00093EA122F04BF00EBC25070474FEAC3706C
:1033C0007047130A5FEADC1008BF7047F6E79CEA13
:1033D000026F04D010EA5C0F08BF0020704710B5E0
:1033E000FFF73BFF40DFF63E81F0004070470002F0
:1033F0000201030104010501060208020B010C0190
:103400000D010E010F0211011201180119011B011A
:103410001C011D011E02200223022502270229028F
:103420002D012E012F0131013201330200000580F0
:103430000F800A001B801E001400118033803600AC
:103440003C00398028002D802780220063806600A0
:103450006C00698078007D80778072005000558014
:103460005F805A004B804E0044004180C380C600FC
:10347000CC00C980D800DD80D780D200F000F58074
:10348000FF80FA00EB80EE00E400E180A000A58060
:10349000AF80AA00BB80BE00B400B18093809600CC
:1034A0009C00998088008D808780820083818601BE
:1034B0008C01898198019D8197819201B001B5812C
:1034C000BF81BA01AB81AE01A401A181E001E58118
:1034D000EF81EA01FB81FE01F401F181D381D60184
:1034E000DC01D981C801CD81C781C201400145817C
:1034F0004F814A015B815E015401518173817601E4
:103500007C01798168016D816781620123812601D7
:103510002C01298138013D8137813201100115814B
:103520001F811A010B810E0104010181038306032F
:103530000C03098318031D8317831203300335839B
:103540003F833A032B832E03240321836003658387
:103550006F836A037B837E037403718353835603F3
:103560005C03598348034D8347834203C003C583EB
:10357000CF83CA03DB83DE03D403D183F383F60353
:10358000FC03F983E803ED83E783E203A383A60347
:10359000AC03A983B803BD83B783B20390039583BB
:1035A0009F839A038B838E038403818380028582A9
:1035B0008F828A029B829E0294029182B382B6021B
:1035C000BC02B982A802AD82A782A202E382E6020F
:1035D000EC02E982F802FD82F782F202D002D58283
:1035E000DF82DA02CB82CE02C402C182438246026B
:1035F0004C02498258025D825782520270027582E3
:103600007F827A026B826E026402618220022582CE
:103610002F822A023B823E0234023182138216023A
:103620001C02198208020D82078202024C36000831
:10363000000000209800000028010008E43600087F
:1036400098000020B84C00004401000804646400A5
:10365000000000000000000000000000000000006A
:10366000000000000000000000000000000000005A
:1036700000000C4200000C4200000C420000000060
:10368000000000000000000000000000F8430000FF
:1036900000000000AAAAAAAA000000000000000082
:1036A000000000000000000000000000000000001A
:1036B000000000000000000000000000000000000A
:1036C0000000000000000000FFFFFFFF00000000FE
:1036D00000000000010203040102030406070809B8
:0436E00002040608D2
:04000005080000ED02
:00000001FF
